{
  "address": "0x055cF4bB47B5C97408f56F93585d69722fec2595",
  "abi": [
    {
      "inputs": [
        {
          "internalType": "address",
          "name": "priceFeedAddress",
          "type": "address"
        }
      ],
      "stateMutability": "nonpayable",
      "type": "constructor"
    },
    {
      "inputs": [],
      "name": "Fund__notOwner",
      "type": "error"
    },
    {
      "stateMutability": "payable",
      "type": "fallback"
    },
    {
      "inputs": [],
      "name": "MINIMUM_FUND_IN_USD",
      "outputs": [
        {
          "internalType": "uint256",
          "name": "",
          "type": "uint256"
        }
      ],
      "stateMutability": "view",
      "type": "function"
    },
    {
      "inputs": [],
      "name": "cheaperWithdraw",
      "outputs": [],
      "stateMutability": "payable",
      "type": "function"
    },
    {
      "inputs": [],
      "name": "getFund",
      "outputs": [],
      "stateMutability": "payable",
      "type": "function"
    },
    {
      "inputs": [],
      "name": "i_owner",
      "outputs": [
        {
          "internalType": "address",
          "name": "",
          "type": "address"
        }
      ],
      "stateMutability": "view",
      "type": "function"
    },
    {
      "inputs": [
        {
          "internalType": "address",
          "name": "",
          "type": "address"
        }
      ],
      "name": "s_addressToFundAmount",
      "outputs": [
        {
          "internalType": "uint256",
          "name": "",
          "type": "uint256"
        }
      ],
      "stateMutability": "view",
      "type": "function"
    },
    {
      "inputs": [
        {
          "internalType": "uint256",
          "name": "",
          "type": "uint256"
        }
      ],
      "name": "s_funders",
      "outputs": [
        {
          "internalType": "address",
          "name": "",
          "type": "address"
        }
      ],
      "stateMutability": "view",
      "type": "function"
    },
    {
      "inputs": [],
      "name": "s_priceFeed",
      "outputs": [
        {
          "internalType": "contract AggregatorV3Interface",
          "name": "",
          "type": "address"
        }
      ],
      "stateMutability": "view",
      "type": "function"
    },
    {
      "inputs": [],
      "name": "withdraw",
      "outputs": [],
      "stateMutability": "nonpayable",
      "type": "function"
    },
    {
      "stateMutability": "payable",
      "type": "receive"
    }
  ],
  "transactionHash": "0xf41a0028c56de573c320b47f8482965197c930edbc7684b53ff9485677136799",
  "args": [
    "0xD4a33860578De61DBAbDc8BFdb98FD742fA7028e"
  ],
  "numDeployments": 1,
  "solcInputHash": "7211325a4ff65d4948a1cf91cb37cec0",
  "bytecode": "0x60a06040523480156200001157600080fd5b50604051620012373803806200123783398181016040528101906200003791906200011c565b3373ffffffffffffffffffffffffffffffffffffffff1660808173ffffffffffffffffffffffffffffffffffffffff1681525050806000806101000a81548173ffffffffffffffffffffffffffffffffffffffff021916908373ffffffffffffffffffffffffffffffffffffffff160217905550506200014e565b600080fd5b600073ffffffffffffffffffffffffffffffffffffffff82169050919050565b6000620000e482620000b7565b9050919050565b620000f681620000d7565b81146200010257600080fd5b50565b6000815190506200011681620000eb565b92915050565b600060208284031215620001355762000134620000b2565b5b6000620001458482850162000105565b91505092915050565b6080516110bf62000178600039600081816103030152818161059b015261084001526110bf6000f3fe60806040526004361061007f5760003560e01c8063986f66411161004e578063986f664114610121578063be2693f01461015e578063dba6335f14610168578063f18a5222146101935761008e565b80630ec3b027146100985780633ccfd60b146100c357806354861af7146100da5780638edd6eb6146101175761008e565b3661008e5761008c6101be565b005b6100966101be565b005b3480156100a457600080fd5b506100ad6102dd565b6040516100ba9190610a69565b60405180910390f35b3480156100cf57600080fd5b506100d8610301565b005b3480156100e657600080fd5b5061010160048036038101906100fc9190610abf565b610542565b60405161010e9190610b0d565b60405180910390f35b61011f6101be565b005b34801561012d57600080fd5b5061014860048036038101906101439190610b54565b610581565b6040516101559190610b90565b60405180910390f35b610166610599565b005b34801561017457600080fd5b5061017d61083e565b60405161018a9190610b0d565b60405180910390f35b34801561019f57600080fd5b506101a8610862565b6040516101b59190610b90565b60405180910390f35b60016101f360008054906101000a900473ffffffffffffffffffffffffffffffffffffffff163461086790919063ffffffff16565b1015610234576040517f08c379a000000000000000000000000000000000000000000000000000000000815260040161022b90610c08565b60405180910390fd5b34600260003373ffffffffffffffffffffffffffffffffffffffff1673ffffffffffffffffffffffffffffffffffffffff168152602001908152602001600020819055506001339080600181540180825580915050600190039060005260206000200160009091909190916101000a81548173ffffffffffffffffffffffffffffffffffffffff021916908373ffffffffffffffffffffffffffffffffffffffff160217905550565b60008054906101000a900473ffffffffffffffffffffffffffffffffffffffff1681565b7f000000000000000000000000000000000000000000000000000000000000000073ffffffffffffffffffffffffffffffffffffffff163373ffffffffffffffffffffffffffffffffffffffff1614610386576040517f68bdc03500000000000000000000000000000000000000000000000000000000815260040160405180910390fd5b60005b600180549050811015610432576000600182815481106103ac576103ab610c28565b5b9060005260206000200160009054906101000a900473ffffffffffffffffffffffffffffffffffffffff1690506000600260008373ffffffffffffffffffffffffffffffffffffffff1673ffffffffffffffffffffffffffffffffffffffff1681526020019081526020016000208190555050808061042a90610c86565b915050610389565b50600067ffffffffffffffff81111561044e5761044d610ccf565b5b60405190808252806020026020018201604052801561047c5781602001602082028036833780820191505090505b5060019080519060200190610492929190610943565b5060003373ffffffffffffffffffffffffffffffffffffffff16476040516104b990610d2f565b60006040518083038185875af1925050503d80600081146104f6576040519150601f19603f3d011682016040523d82523d6000602084013e6104fb565b606091505b505090508061053f576040517f08c379a000000000000000000000000000000000000000000000000000000000815260040161053690610d90565b60405180910390fd5b50565b6001818154811061055257600080fd5b906000526020600020016000915054906101000a900473ffffffffffffffffffffffffffffffffffffffff1681565b60026020528060005260406000206000915090505481565b7f000000000000000000000000000000000000000000000000000000000000000073ffffffffffffffffffffffffffffffffffffffff163373ffffffffffffffffffffffffffffffffffffffff161461061e576040517f68bdc03500000000000000000000000000000000000000000000000000000000815260040160405180910390fd5b600060018054806020026020016040519081016040528092919081815260200182805480156106a257602002820191906000526020600020905b8160009054906101000a900473ffffffffffffffffffffffffffffffffffffffff1673ffffffffffffffffffffffffffffffffffffffff1681526020019060010190808311610658575b5050505050905060005b815181101561072d5760008282815181106106ca576106c9610c28565b5b602002602001015190506000600260008373ffffffffffffffffffffffffffffffffffffffff1673ffffffffffffffffffffffffffffffffffffffff1681526020019081526020016000208190555050808061072590610c86565b9150506106ac565b50600067ffffffffffffffff81111561074957610748610ccf565b5b6040519080825280602002602001820160405280156107775781602001602082028036833780820191505090505b506001908051906020019061078d929190610943565b5060003373ffffffffffffffffffffffffffffffffffffffff16476040516107b490610d2f565b60006040518083038185875af1925050503d80600081146107f1576040519150601f19603f3d011682016040523d82523d6000602084013e6107f6565b606091505b505090508061083a576040517f08c379a000000000000000000000000000000000000000000000000000000000815260040161083190610d90565b60405180910390fd5b5050565b7f000000000000000000000000000000000000000000000000000000000000000081565b600181565b600080610873836108a3565b90506000670de0b6b3a7640000858361088c9190610db0565b6108969190610e39565b9050809250505092915050565b6000808273ffffffffffffffffffffffffffffffffffffffff1663feaf968c6040518163ffffffff1660e01b815260040160a06040518083038186803b1580156108ec57600080fd5b505afa158015610900573d6000803e3d6000fd5b505050506040513d601f19601f820116820180604052508101906109249190610ef7565b5050509150506402540be4008161093b9190610f72565b915050919050565b8280548282559060005260206000209081019282156109bc579160200282015b828111156109bb5782518260006101000a81548173ffffffffffffffffffffffffffffffffffffffff021916908373ffffffffffffffffffffffffffffffffffffffff16021790555091602001919060010190610963565b5b5090506109c991906109cd565b5090565b5b808211156109e65760008160009055506001016109ce565b5090565b600073ffffffffffffffffffffffffffffffffffffffff82169050919050565b6000819050919050565b6000610a2f610a2a610a25846109ea565b610a0a565b6109ea565b9050919050565b6000610a4182610a14565b9050919050565b6000610a5382610a36565b9050919050565b610a6381610a48565b82525050565b6000602082019050610a7e6000830184610a5a565b92915050565b600080fd5b6000819050919050565b610a9c81610a89565b8114610aa757600080fd5b50565b600081359050610ab981610a93565b92915050565b600060208284031215610ad557610ad4610a84565b5b6000610ae384828501610aaa565b91505092915050565b6000610af7826109ea565b9050919050565b610b0781610aec565b82525050565b6000602082019050610b226000830184610afe565b92915050565b610b3181610aec565b8114610b3c57600080fd5b50565b600081359050610b4e81610b28565b92915050565b600060208284031215610b6a57610b69610a84565b5b6000610b7884828501610b3f565b91505092915050565b610b8a81610a89565b82525050565b6000602082019050610ba56000830184610b81565b92915050565b600082825260208201905092915050565b7f4e6f7420656e6f7567682066756e642062792073656e64657200000000000000600082015250565b6000610bf2601983610bab565b9150610bfd82610bbc565b602082019050919050565b60006020820190508181036000830152610c2181610be5565b9050919050565b7f4e487b7100000000000000000000000000000000000000000000000000000000600052603260045260246000fd5b7f4e487b7100000000000000000000000000000000000000000000000000000000600052601160045260246000fd5b6000610c9182610a89565b91507fffffffffffffffffffffffffffffffffffffffffffffffffffffffffffffffff821415610cc457610cc3610c57565b5b600182019050919050565b7f4e487b7100000000000000000000000000000000000000000000000000000000600052604160045260246000fd5b600081905092915050565b50565b6000610d19600083610cfe565b9150610d2482610d09565b600082019050919050565b6000610d3a82610d0c565b9150819050919050565b7f6661696c65642074780000000000000000000000000000000000000000000000600082015250565b6000610d7a600983610bab565b9150610d8582610d44565b602082019050919050565b60006020820190508181036000830152610da981610d6d565b9050919050565b6000610dbb82610a89565b9150610dc683610a89565b9250817fffffffffffffffffffffffffffffffffffffffffffffffffffffffffffffffff0483118215151615610dff57610dfe610c57565b5b828202905092915050565b7f4e487b7100000000000000000000000000000000000000000000000000000000600052601260045260246000fd5b6000610e4482610a89565b9150610e4f83610a89565b925082610e5f57610e5e610e0a565b5b828204905092915050565b600069ffffffffffffffffffff82169050919050565b610e8981610e6a565b8114610e9457600080fd5b50565b600081519050610ea681610e80565b92915050565b6000819050919050565b610ebf81610eac565b8114610eca57600080fd5b50565b600081519050610edc81610eb6565b92915050565b600081519050610ef181610a93565b92915050565b600080600080600060a08688031215610f1357610f12610a84565b5b6000610f2188828901610e97565b9550506020610f3288828901610ecd565b9450506040610f4388828901610ee2565b9350506060610f5488828901610ee2565b9250506080610f6588828901610e97565b9150509295509295909350565b6000610f7d82610eac565b9150610f8883610eac565b9250827f7fffffffffffffffffffffffffffffffffffffffffffffffffffffffffffffff0482116000841360008413161615610fc757610fc6610c57565b5b817f8000000000000000000000000000000000000000000000000000000000000000058312600084126000841316161561100457611003610c57565b5b827f8000000000000000000000000000000000000000000000000000000000000000058212600084136000841216161561104157611040610c57565b5b827f7fffffffffffffffffffffffffffffffffffffffffffffffffffffffffffffff058212600084126000841216161561107e5761107d610c57565b5b82820290509291505056fea26469706673582212203d683d4d5b08c5db956f9f41130380acf7a9397c402af6e5f6cda587214cf6e064736f6c63430008090033",
  "devdoc": {
    "author": "abhishek yadav",
    "details": "this implements price feed library",
    "kind": "dev",
    "methods": {},
    "title": "title Fund",
    "version": 1
  },
  "userdoc": {
    "kind": "user",
    "methods": {},
    "notice": "this is demo funding contract",
    "version": 1
  },
  "storageLayout": {
    "storage": [
      {
        "astId": 60,
        "contract": "contracts/Fund.sol:Fund",
        "label": "s_priceFeed",
        "offset": 0,
        "slot": "0",
        "type": "t_contract(AggregatorV3Interface)45"
      },
      {
        "astId": 63,
        "contract": "contracts/Fund.sol:Fund",
        "label": "s_funders",
        "offset": 0,
        "slot": "1",
        "type": "t_array(t_address)dyn_storage"
      },
      {
        "astId": 70,
        "contract": "contracts/Fund.sol:Fund",
        "label": "s_addressToFundAmount",
        "offset": 0,
        "slot": "2",
        "type": "t_mapping(t_address,t_uint256)"
      }
    ],
    "types": {
      "t_address": {
        "encoding": "inplace",
        "label": "address",
        "numberOfBytes": "20"
      },
      "t_array(t_address)dyn_storage": {
        "base": "t_address",
        "encoding": "dynamic_array",
        "label": "address[]",
        "numberOfBytes": "32"
      },
      "t_contract(AggregatorV3Interface)45": {
        "encoding": "inplace",
        "label": "contract AggregatorV3Interface",
        "numberOfBytes": "20"
      },
      "t_mapping(t_address,t_uint256)": {
        "encoding": "mapping",
        "key": "t_address",
        "label": "mapping(address => uint256)",
        "numberOfBytes": "32",
        "value": "t_uint256"
      },
      "t_uint256": {
        "encoding": "inplace",
        "label": "uint256",
        "numberOfBytes": "32"
      }
    }
  }
}